:1006A1007D0A7C007F327E001203517D027C007F37
:1006B100967E001206677D057C007F647E00120332
:0E06C100517D0A7C007F327E0012066780D2D7
:0E072C008E2E8F2F120757AF2FAE2E0206CF44
:0805ED008E168F178C188D1972
:1005F5001206F5E4F51AF51BC3E51B9519E5186414
:1006050080F8E51A648098501E120753AF17AE168E
:100615001206CF120757AF17AE161206CF051BE508
:070625001B70D5051A80D1FE
:01062C0022AB
:080003008E1C8F1D8C1E8D1F49
:10000B001206F530B5030200E5E4F520F521C3E552
:10001B0021951FE51E6480F8E5206480984003025B
:10002B0001BF851C14851D157D7312071A851C14C1
:10003B00851D157F007E007D797C431207201207FA
:10004B0012851C14851D157F007E007DFC7C4212E1
:10005B000720851C14851D157F007E007D7C7C424E
:10006B00120720851C14851D157F007E007D1F7CCB
:10007B0043120720851C14851D157F007E007D4FC4
:10008B007C43120720851C14851D157F007E007D87
:10009B001F7C43120720851C14851D157F007E00D5
:1000AB007D7C7C42120720851C14851D157F007EEC
:1000BB00007DFC7C42120720120712851C14851D43
:1000CB00157F007E007D797C431207200521E521F9
:1000DB006003020019052002001920B5030201BFBD
:1000EB00E4F520F521C3E521951FE51E6480F8E5B5
:1000FB002064809840030201BF851C14851D157F69
:10010B00007E007D4F7C43120720851C14851D1536
:10011B007F007E007D1F7C43120720851C14851DEC
:10012B00157F007E007D7C7C42120720851C148588
:10013B001D157F007E007DFC7C42120720120712EA
:10014B00851C14851D157F007E007D797C4312076D
:10015B0020851C14851D157F007E007D737C43124A
:10016B000720851C14851D157F007E007D797C433F
:10017B00120720120712851C14851D157F007E00A7
:10018B007DFC7C42120720851C14851D157F007E8B
:10019B00007D7C7C42120720851C14851D157F0079
:1001AB007E007D1F7C431207200521E5217002058F
:0401BB00200200F02E
:0101BF00221D
:080351008E088F098C0A8D0B48
:100359001206F5E4F50CF50DC3E50D950BE50A64F8
:1003690080F8E50C6480984003020403850814852D
:1003790009157F007E007D737C43120720850814D0
:100389008509157F007E007D797C43120720850849
:10039900148509151207188508148509157F007E2B
:1003A900007DFC7C421207208508148509157F0011
:1003B9007E007D7C7C421207208508148509157F03
:1003C900007E007D1F7C43120720850814850915CE
:1003D9007F007E007D4F7C43120720850814850924
:1003E900157F007E007D677C43120720050DE50D12
:0A03F9006003020361050C020361BA
:0104030022D6
:0E071200851C14851D157D7C7F007E007C43B8
:0C0720001205A88F90AF15AE140206CF92
:0801C0008E228F238C248D2573
:1001C8001206F5E4F526F527C3E5279525E5246409
:1001D80080F8E52664809840030203508522148540
:1001E80023157F007E007D737C431207208522142F
:1001F8008523157F007E007D797C431207208522A8
:10020800148523157F007E007D737C4312072085AB
:1002180022148523157F007E007D797C43120720F8
:100228008522148523151207188522148523157F26
:10023800007E007D797C43120720852214852315D2
:100248001207188522148523157F007E007DFC7C0B
:1002580042120720852214852315120718852214B7
:100268008523157F007E007DFC7C421207208522B5
:10027800148523157F007E007D7C7C421207208533
:1002880022148523157F007E007DFC7C4212072006
:100298008522148523157F007E007D7C7C42120711
:1002A800208522148523157F007E007D1F7C431244
:1002B80007208522148523157F007E007D7C7C42E3
:1002C8001207208522148523157F007E007D1F7C60
:1002D800431207208522148523157F007E007D4F59
:1002E8007C431207208522148523157F007E007D1C
:1002F8001F7C431207208522148523157F007E006A
:100308007D4F7C431207208522148523157F007EAC
:10031800007D677C431207208522148523157F0002
:100328007E007D4F7C431207208522148523157F8C
:10033800007E007D677C431207200527E5276003C0
:080348000201D005260201D0DC
:01035000228A
:08062D008E288F298C2A8D2BE9
:100635001206F5E4F52CF52DC3E52D952BE52A6479
:1006450080F8E52C6480985018AF29AE2812040470
:10065500AF29AE28120490052DE52D70DB052C8001
:01066500D7BD
:010666002271
:080667008E088F098C0A8D0B2F
:10066F001206F5E4F50CF50DC3E50D950BE50A64DF
:10067F0080F8E50C6480985018AF09AE0812040496
:10068F00AF09AE0812051C050DE50D70DB050C80DA
:01069F00D783
:0106A0002237
:100404008E0E8F0F850E14850F157F007E007D776D
:100414007C43120720850E14850F157F007E007D16
:10042400737C43120720850E14850F157F007E0010
:100434007D717C43120720850E14850F157F007E85
:10044400007D707C43120720850E14850F157F00F4
:100454007E007DE07C42120720850E14850F157FF7
:10046400007E007D407C42120720850E14850F1506
:100474007F007E007D807C41120720850E14850F4D
:0C048400157F007E007D007C0002072038
:100490008E308F318530148531157F007E007D8050
:1004A0007C411207208530148531157F007E007D48
:1004B000407C421207208530148531157F007E0074
:1004C0007DE07C421207208530148531157F007E47
:1004D000007D707C431207208530148531157F0024
:1004E0007E007D717C431207208530148531157F95
:1004F000007E007D737C4312072085301485311502
:100500007F007E007D777C43120720853014853183
:0C051000157F007E007D7F7C43020720E9
:10051C008E0E8F0F850E14850F157F007E007D00CB
:10052C007C41120720850E14850F157F007E007DFF
:10053C00407C41120720850E14850F157F007E002C
:10054C007D607C41120720850E14850F157F007E7F
:10055C00007D707C41120720850E14850F157F00DD
:10056C007E007D0F7C43120720850E14850F157FAE
:10057C00007E007D4F7C43120720850E14850F15DD
:10058C007F007E007D6F7C43120720850E14850F43
:0C059C00157F007E007D7F7C430207205D
:1006CF00E4FDFCE4FBFAC3EB9FEE6480F8EA648080
:1006DF009850070BBB00010A80EC0DBD00010CED1B
:0506EF0064644C70DEA4
:0106F40022E3
:04075300E4F5902217
:040757007590FF2278
:03075B00D2B422F3
:03075E00C2B42200
:06074D0030B502C2B42227
:1006F50020B50C7F327E001206CF20B40F80FB128E
:0D070500075E7F647E001206CF12075B22A4
:0707460020B5031206CF22CB
:1005A800EDD2E7CD33EC3392D524814006E4FFFE4B
:1005B800FDFC22FCE4CFCECDCC24E0501174FF80AA
:1005C800EDC3CC13CCCD13CDCE13CECF13CF047047
:0705D800F030D5DE0205DF63
:0300000002073ABA
:0C073A00787FE4F6D8FD7581310206A13D
:0E05DF00C3E49FFFE49EFEE49DFDE49CFC222D
:00000001FF
