:1006A1007D0A7C007F327E001203517D027C007F37
:1006B100967E001206677D057C007F647E00120332
:0E06C100517D0A7C007F327E0012066780D2D7
:0E070F008E2E8F2F12073AAF2FAE2E0206CF7E
:0805ED008E168F178C188D1972
:1005F500120744E4F51AF51BC3E51B9519E51864C4
:1006050080F8E51A648098501E120736AF17AE16AB
:100615001206CF12073AAF17AE161206CF051BE525
:070625001B70D5051A80D1FE
:01062C0022AB
:080003008E1C8F1D8C1E8D1F49
:10000B0012074430B5030200E5E4F520F521C3E502
:10001B0021951FE51E6480F8E5206480984003025B
:10002B0001BF851C14851D157D731206FD851C14DF
:10003B00851D157F007E007D797C43120703120618
:10004B00F5851C14851D157F007E007DFC7C4212FE
:10005B000703851C14851D157F007E007D7C7C426B
:10006B00120703851C14851D157F007E007D1F7CE8
:10007B0043120703851C14851D157F007E007D4FE1
:10008B007C43120703851C14851D157F007E007DA4
:10009B001F7C43120703851C14851D157F007E00F2
:1000AB007D7C7C42120703851C14851D157F007E09
:1000BB00007DFC7C421207031206F5851C14851D7E
:1000CB00157F007E007D797C431207030521E52116
:1000DB006003020019052002001920B5030201BFBD
:1000EB00E4F520F521C3E521951FE51E6480F8E5B5
:1000FB002064809840030201BF851C14851D157F69
:10010B00007E007D4F7C43120703851C14851D1553
:10011B007F007E007D1F7C43120703851C14851D09
:10012B00157F007E007D7C7C42120703851C1485A5
:10013B001D157F007E007DFC7C421207031206F525
:10014B00851C14851D157F007E007D797C4312076D
:10015B0003851C14851D157F007E007D737C431267
:10016B000703851C14851D157F007E007D797C435C
:10017B001207031206F5851C14851D157F007E00E2
:10018B007DFC7C42120703851C14851D157F007EA8
:10019B00007D7C7C42120703851C14851D157F0096
:1001AB007E007D1F7C431207030521E521700205AC
:0401BB00200200F02E
:0101BF00221D
:080351008E088F098C0A8D0B48
:10035900120744E4F50CF50DC3E50D950BE50A64A8
:1003690080F8E50C6480984003020403850814852D
:1003790009157F007E007D737C43120703850814ED
:100389008509157F007E007D797C43120703850866
:10039900148509151206FB8508148509157F007E49
:1003A900007DFC7C421207038508148509157F002E
:1003B9007E007D7C7C421207038508148509157F20
:1003C900007E007D1F7C43120703850814850915EB
:1003D9007F007E007D4F7C43120703850814850941
:1003E900157F007E007D677C43120703050DE50D2F
:0A03F9006003020361050C020361BA
:0104030022D6
:0E06F500851C14851D157D7C7F007E007C43D6
:0C0703001205A88F90AF15AE140206CFAF
:0801C0008E228F238C248D2573
:1001C800120744E4F526F527C3E5279525E52464B9
:1001D80080F8E52664809840030203508522148540
:1001E80023157F007E007D737C431207038522144C
:1001F8008523157F007E007D797C431207038522C5
:10020800148523157F007E007D737C4312070385C8
:1002180022148523157F007E007D797C4312070315
:100228008522148523151206FB8522148523157F44
:10023800007E007D797C43120703852214852315EF
:100248001206FB8522148523157F007E007DFC7C29
:10025800421207038522148523151206FB852214F2
:100268008523157F007E007DFC7C421207038522D2
:10027800148523157F007E007D7C7C421207038550
:1002880022148523157F007E007DFC7C4212070323
:100298008522148523157F007E007D7C7C42120711
:1002A800038522148523157F007E007D1F7C431261
:1002B80007038522148523157F007E007D7C7C4200
:1002C8001207038522148523157F007E007D1F7C7D
:1002D800431207038522148523157F007E007D4F76
:1002E8007C431207038522148523157F007E007D39
:1002F8001F7C431207038522148523157F007E0087
:100308007D4F7C431207038522148523157F007EC9
:10031800007D677C431207038522148523157F001F
:100328007E007D4F7C431207038522148523157FA9
:10033800007E007D677C431207030527E5276003DD
:080348000201D005260201D0DC
:01035000228A
:08062D008E288F298C2A8D2BE9
:10063500120744E4F52CF52DC3E52D952BE52A6429
:1006450080F8E52C6480985018AF29AE2812040470
:10065500AF29AE28120490052DE52D70DB052C8001
:01066500D7BD
:010666002271
:080667008E088F098C0A8D0B2F
:10066F00120744E4F50CF50DC3E50D950BE50A648F
:10067F0080F8E50C6480985018AF09AE0812040496
:10068F00AF09AE0812051C050DE50D70DB050C80DA
:01069F00D783
:0106A0002237
:100404008E0E8F0F850E14850F157F007E007D776D
:100414007C43120703850E14850F157F007E007D33
:10042400737C43120703850E14850F157F007E002D
:100434007D717C43120703850E14850F157F007EA2
:10044400007D707C43120703850E14850F157F0011
:100454007E007DE07C42120703850E14850F157F14
:10046400007E007D407C42120703850E14850F1523
:100474007F007E007D807C41120703850E14850F6A
:0C048400157F007E007D007C0002070355
:100490008E308F318530148531157F007E007D8050
:1004A0007C411207038530148531157F007E007D65
:1004B000407C421207038530148531157F007E0091
:1004C0007DE07C421207038530148531157F007E64
:1004D000007D707C431207038530148531157F0041
:1004E0007E007D717C431207038530148531157FB2
:1004F000007E007D737C431207038530148531151F
:100500007F007E007D777C431207038530148531A0
:0C051000157F007E007D7F7C4302070306
:10051C008E0E8F0F850E14850F157F007E007D00CB
:10052C007C41120703850E14850F157F007E007D1C
:10053C00407C41120703850E14850F157F007E0049
:10054C007D607C41120703850E14850F157F007E9C
:10055C00007D707C41120703850E14850F157F00FA
:10056C007E007D0F7C43120703850E14850F157FCB
:10057C00007E007D4F7C43120703850E14850F15FA
:10058C007F007E007D6F7C43120703850E14850F60
:0C059C00157F007E007D7F7C430207037A
:1006CF00E4FDFCE4FBFAC3EB9FEE6480F8EA648080
:1006DF009850070BBB00010A80EC0DBD00010CED1B
:0506EF0064644C70DEA4
:0106F40022E3
:04073600E4F5902234
:04073A007590FF2295
:03073E00D2B42210
:03074100C2B4221D
:0607300030B502C2B42244
:010744002292
:0707290020B5031206CF22E8
:1005A800EDD2E7CD33EC3392D524814006E4FFFE4B
:1005B800FDFC22FCE4CFCECDCC24E0501174FF80AA
:1005C800EDC3CC13CCCD13CDCE13CECF13CF047047
:0705D800F030D5DE0205DF63
:0300000002071DD7
:0C071D00787FE4F6D8FD7581310206A15A
:0E05DF00C3E49FFFE49EFEE49DFDE49CFC222D
:00000001FF
