:10037C001204557D067C007F0A7E0012020E7D035E
:10038C007C007F0A7E0012012E7D027C007F0A7E9B
:06039C000012000380DDE9
:0E0428008E268F2712045FAF27AE26020356E2
:0802C5008E148F158C168D17A5
:1002CD001203E4E4F518F519C3E5199517E516645D
:1002DD0080F8E518648098501E12045BAF15AE14BB
:1002ED0012035612045FAF15AE141203560519E52D
:0D02FD001970D5051880D1E4FFFE02044EF3
:08012E008E088F098C0A8D0B6D
:100136001203E420B566E4F50CF50DC3E50D950B49
:10014600E50A6480F8E50C648098400302020875AD
:1001560090F312035212034F7590FC1203527590DE
:100166007E12035275903F12035275909F120352EE
:100176007590CF12035275909F12035275903F12DD
:10018600035275907E1203527590FC1203521203AD
:100196004F050DE50D70A4050C02014130B563E471
:1001A600F50CF50DC3E50D950BE50A6480F8E50C35
:1001B600648098504D7590CF12035275909F12032C
:1001C6005275903F12035275907E1203527590FC41
:1001D60012035212034F7590F312035212034F7516
:1001E60090FC12035275907E12035275903F1203D3
:1001F6005275909F120352050DE50D7002050C0213
:0802060001AAE4FFFE02044E10
:08020E008E088F098C0A8D0B8C
:10021600E4FFFE1203E7E4F50CF50DC3E50D950BBF
:10022600E50A6480F8E50C64809840030202BF8505
:1002360008128509137D73120416850812850913A1
:100246007F007E007D797C4312041C850812850997
:10025600137D7C1204168508128509137F007E0023
:100266007DFC7C4212041C8508128509137F007EE2
:10027600007D7C7C4212041C8508128509137F00D0
:100286007E007D1F7C4312041C8508128509137F9E
:10029600007E007D4F7C4312041C850812850913DD
:1002A6007F007E007D677C4312041C050DE50D6012
:0F02B60003020221050C020221E4FFFE02044EA6
:060416007F007E007C4324
:0C041C0012030A8F90AF13AE12020356B9
:080003008E088F098C0A8D0B99
:10000B00E4FFFE1203E7E4F50CF50DC3E50D950BCC
:10001B00E50A6480F8E50C648098400302012875BA
:10002B0090F3AF09AE081203567590F9AF09AE08FD
:10003B001203567590F3AF09AE081203567590F97B
:10004B00AF09AE081203567590FCAF09AE08120348
:10005B00567590F9AF09AE081203567590FCAF09AF
:10006B00AE0812035675907EAF09AE081203567593
:10007B0090FCAF09AE0812035675907EAF09AE081F
:10008B0012035675903FAF09AE0812035675907E5A
:10009B00AF09AE0812035675903FAF09AE081203B5
:1000AB005675909FAF09AE0812035675903FAF0976
:1000BB00AE0812035675909FAF09AE081203567522
:1000CB0090CFAF09AE0812035675909FAF09AE08DB
:1000DB001203567590CFAF09AE081203567590E711
:1000EB00AF09AE081203567590CFAF09AE081203D5
:1000FB00567590E7AF09AE081203567590F3AF092A
:10010B00AE081203567590E7AF09AE0812035605F9
:10011B000DE50D6003020016050C020016E4FFFE50
:03012B0002044E7D
:1003A2008E1A8F1B8C1C8D1D7590F77590F37590AE
:1003B200F17590F0759070759030759010E4F5902D
:0103C2002218
:1003C3008E1E8F1F8C208D21759010759030759027
:1003D300707590F07590F17590F37590F77590FFC7
:0103E30022F7
:100401008E228F238C248D2575900875900C759004
:050411000E75900F22A2
:07034F007590F9AF09AE083B
:10035600E4FDFCE4FBFAC3EB9FEE6480F8EA6480FC
:100366009850070BBB00010A80EC0DBD00010CBCC8
:0503760003E1BDE8DE1B
:01037B00225F
:04045B00E4F5902212
:04045F007590FF2273
:0C043600D2B47F017E00120356C2B42233
:0604550030B502C2B42222
:0303E400E4FFFE35
:1003E7008F828E8320B50520B40F80FB30B50A12AB
:0A03F7000436AF82AE8312035622D3
:07044E0020B5031203562242
:10030A00EDD2E7CD33EC3392D524814006E4FFFEEB
:10031A00FDFC22FCE4CFCECDCC24E0501174FF804A
:10032A00EDC3CC13CCCD13CDCE13CECF13CF0470E7
:07033A00F030D5DE020341A3
:03000000020442B5
:0C044200787FE4F6D8FD75812702037C6A
:0E034100C3E49FFFE49EFEE49DFDE49CFC22CD
:00000001FF
